:020000040800F2
:10000000E804002001010008FD1D0008F51D00089E
:10001000F91D0008E1060008DD1E000800000000D0
:10002000000000000000000000000000051E0008A5
:100030001D09000800000000011E0008091E00083C
:100040001B0100081B0100081B0100081B01000820
:100050001B0100081B0100081B0100081B01000810
:100060001B0100081B0100081B0100081B01000800
:100070001B0100081B0100081B0100081B010008F0
:100080001B0100081B0100081B0100081B010008E0
:100090001B0100081B0100081B0100081B010008D0
:1000A0001B0100081B0100081B0100081B010008C0
:1000B0001B0100081B0100081B0100081B010008B0
:1000C0001B0100081B0100081B0100081B010008A0
:1000D0001B010008D11E00081B0100081B010008BD
:1000E0001B0100081B0100081B010008DFF80CD0F1
:1000F00000F050FA004800479D200008E804002066
:100100000648804706480047FEE7FEE7FEE7FEE7B1
:10011000FEE7FEE7FEE7FEE7FEE7FEE70D1E00084E
:10012000ED000008421C10F8011B0029FBD1801AC9
:10013000704710B5002200E0521C835C8C5CA34227
:1001400001D1002BF8D1D8B2E1B2401A10BD0000A5
:1001500070B50F4D00B92868002412E00A4602E08D
:100160009E4203D0521C1378002BF9D1DAB22243FD
:1001700005D02BB124B1002100F8011B04E0044696
:10018000401C0678002EE9D12860204670BD000092
:100190000000002030B50B4601460020202201243B
:1001A00009E021FA02F59D4205D303FA02F5491B45
:1001B00004FA02F52844151EA2F10102F1DC30BD5B
:1001C0002DE9F05F0546002092469B46884606468C
:1001D000814640241BE0284641464746224600F01F
:1001E00000FA53465A46C01A914110D31146184698
:1001F000224600F0E7F92D1A67EB01084F46224628
:100200000120002100F0DEF917EB00094E41201E0D
:10021000A4F10104DFDC484631462A464346BDE8E6
:10022000F09F2DE9FE4F804681EA0300C00F0C4687
:10023000009021F0004123F00045B8EB0200A941F5
:1002400005D24046214690461C460B46024623F006
:100250000040104347D0270DC7F30A00C3F30A51EB
:100260000290401A019040286BDAC3F3130040F467
:10027000801B0098924620B10023D2EB030A63EB67
:100280000B0B01985946C0F14002504600F09AF914
:1002900006460D4650465946019A00F0B2F910EB59
:1002A00008006141002487EA115284EAE7731A4387
:1002B00040D0009A62B3019A012A4FEA075215DC36
:1002C000001B61EB02014FF0004202EA0752CDE948
:1002D0000042001C41F5801132462B4600F0B2F975
:1002E00003B0BDE8F08F40462146F9E7001B61EB03
:1002F0000201001C41F5801300185B412018A2F593
:10030000001747EB030140EAD570B6196D4111E0C3
:100310006D084FEA360645EAC0754FEA0752001BE2
:1003200061EB0201001C41F5801149084FEA3000E1
:100330000019514132462B4603B0BDE8F04F00F0A2
:1003400072B90098012240000023D0EB020263EB57
:10035000E073009821464FEAE074B8EB000061EBCF
:100360000401E9E783F000435BE781F0004158E7CF
:100370002DE9FE4F81EA030404F0004421F000411E
:1003800000944FF0000B23F0004350EA01045ED0CC
:1003900052EA03045BD0C3F30A54C1F30A552C4458
:1003A000A4F2F3340194A0FB0254C1F3130141F40D
:1003B0008011C3F3130343F4801301FB024400FBD9
:1003C000034E840A970A44EA815447EA8357A4FB00
:1003D000076802958D0A05FB07854FEA932C04FBFD
:1003E0000C542705029D4FEA065847EA1637B5EB2D
:1003F00008056EEB070C870E920E47EA811742EA5A
:100400008312A7FB0201B6EB0B0164EB00042B0D7A
:1004100043EA0C335E1844EB1C50DA465146E7FBC6
:100420000201C5F313044FEA0B3343EA14534FEAB6
:100430000432019C43EA0603A4F10C040294009CDC
:10044000CDE900B400F0FEF803B0BDE8F08F002065
:100450000146F9E72DE9F04D81EA030404F0004B71
:1004600021F0004514464FF0000A23F0004150EA05
:10047000050220D054EA01021DD0C5F30A570246F6
:10048000C5F31303C1F31300C1F30A5640F48015FA
:1004900043F48013A7EB0608101BD64608F2FD387C
:1004A00073EB050002D308F1010801E092185B41EB
:1004B000B8F1000F03DA00200146BDE8F08D0020FE
:1004C0004FF48011064684460EE0171B73EB0507B8
:1004D00005D3121B63EB050306434CEA010C4908E4
:1004E0004FEA300092185B4150EA0107EDD152EA21
:1004F000030012D082EA040083EA0501084305D014
:10050000101BAB4106D20122002306E000224FF06F
:10051000004302E06FF0010253101AEB06004CEBAF
:10052000085110EB0A0041EB0B01BDE8F04D00F063
:100530007AB8C1F30A52C1F3130140F2FF3341F418
:1005400080119A4202DA00200146704740F233439C
:100550009A42A2F2334202DC524200F042B800F06A
:1005600031B8000030B5041E71F1000404DB4FF017
:100570000044404264EB0101141E73F1000405DBEA
:100580001C464FF00043524263EB0403994208BFFC
:10059000904230BD1CB509480090094801900546BD
:1005A000009C06E0E06840F0010394E807009847EB
:1005B0001034AC42F6D3FFF79DFD0000BC2B0008C1
:1005C000DC2B0008202A04DB203A00FA02F100208C
:1005D00070479140C2F1200320FA03F31943904081
:1005E0007047202A04DB203A21FA02F000217047EC
:1005F00021FA02F3D040C2F120029140084319468B
:100600007047202A06DBCB17203A41FA02F043EA72
:10061000E07306E041FA02F3D040C2F120029140BB
:1006200008431946704710B5141E73F1000408DA28
:10063000401C41F1000192185B411A4301D120F0A6
:10064000010010BD2DE9F04D92469B4611B1B1FA63
:1006500081F202E0B0FA80F220329046FFF7B2FF5A
:1006600004460F4640EA0A0041EA0B0153465A4647
:10067000084313D0114653EA010019D0C8F14002D3
:100680005046FFF7AEFF05460E46504659464246D5
:10069000FFF798FF084305D0012004E020463946C3
:1006A000BDE8F08D0020054346EAE0762C43374351
:1006B0000A986305E40AA0EB08000022FD0A44EA58
:1006C00047540A3002D500200146E9E70105101918
:1006D0006941DDE9084500196941BDE8F04DA2E72F
:1006E000FEE7000001608280704700002DE9F04FB6
:1006F00081B004462068A18800F0ACFA0028F9D047
:10070000322001F0EDFB2068A18800F0A3FA0090F0
:100710002068A18800F09EFA0128F9D02068A188FD
:1007200000F098FA0028F9D0322001F0D9FB2068B7
:10073000A18800F08FFA81462068A18800F08AFA2B
:100740000128F9D02068A18800F084FA0028F9D0A7
:10075000322001F0C5FB2068A18800F07BFA8246B8
:100760002068A18800F076FA0128F9D02068A188D5
:1007700000F070FA0028F9D0322001F0B1FB2068B7
:10078000A18800F067FA83462068A18800F062FA29
:100790000128F9D02068A18800F05CFA0028F9D07F
:1007A000322001F09DFB2068A18800F053FA064634
:1007B0002068A18800F04EFA0128F9D02068A188AD
:1007C00000F048FA0028F9D0322001F089FB2068B7
:1007D000A18800F03FFA07462068A18800F03AFAA5
:1007E0000128F9D02068A18800F034FA0028F9D057
:1007F000322001F075FB2068A18800F02BFA054635
:100800002068A18800F026FA0128F9D02068A18884
:1008100000F020FA0028F9D0322001F061FB2068B6
:10082000A18800F017FA80462068A18800F012FA2B
:100830000128F9D00099A9F101020139B1FA81F139
:10084000B2FA82F24909520942EA4101AAF10102CF
:10085000B2FA82F28900520941EA4201ABF1010287
:10086000B2FA82F252091144721EB2FA82F289007F
:10087000520941EA42017A1EB2FA82F25209114447
:100880006A1EA8F10100B2FA82F2B0FA80F05209B1
:100890008900400941EA42010844C0B201B0BDE804
:1008A000F08F000070B584B0044680880225009067
:1008B0000120CDE9010020686946039500F0C0F8E9
:1008C0002068A1880022002600F0CAF9142000F058
:1008D000A3F82068A188012200F0C2F91E2001F0CF
:1008E000FFFAA0886946CDE90006206802960395C4
:1008F00000F0A6F82068A18800F0ACF90128F9D032
:100900002068A18800F0A6F90028F9D02068A18805
:1009100000F0A0F90128F9D004B070BD70470000C4
:10092000014690F82100022816D10868D1E90FC3CA
:10093000026822F00E020260026822F001020260E8
:10094000012000FA03F2CCF8042081F821000020F5
:10095000002281F8202070470420886301200022B3
:1009600081F820207047000090F82110022923D13F
:10097000026840F2040C1168C4F2020C21F00E016E
:10098000116013682F21C4F202018A4223F001038F
:10099000136015DD3023C4F202039A421CD04423B5
:1009A000C4F202039A421BD05823C4F202039A42B3
:1009B0001CD14FF4803321E0042181630120704772
:1009C0000823C4F202039A420ED01C23C4F202038D
:1009D0009A420BD1102311E04FF480730EE000BF58
:1009E0004FF480530AE000BF012307E00CF16801D7
:1009F0004FF080738A4208BF4FF48013CCF8003068
:100A0000416B4FF480720029028404BF00207047BC
:100A100080B58847002080BDB0B5044600F026F9B7
:100A2000054640F20400C2F200000078611C18BFC5
:100A3000044400BF00F01AF9401BA042FAD3B0BD35
:100A40002DE9F04F82B00E68002E00F0FF8040F2DA
:100A50000C4C40F2004E41F20042C4F2010CC4F2D0
:100A6000010EC4F201020427002401234FF0000A02
:100A70004FF00009904208BF0327009749E000BFEC
:100A800041F20002C4F20102009F904208BF022717
:100A900004F00C030F229A402BEA020207FA03F338
:100AA0004FEA9A051A4346F825204E68F203DEF80D
:100AB000002054BF22EA080242EA0802CEF80020D1
:100AC000DEF80420B30354BF22EA080242EA080217
:100AD000CEF80420F302DEF8082054BF22EA080210
:100AE00042EA0802B302CEF80820DCF800204FF0FA
:100AF000010354BF22EA080242EA0802CCF80020AF
:100B00000E680AF1010A36FA0AF204F1040400F050
:100B10009D8003FA0AFB16EA0B08F1D04E684FF6E7
:100B2000FF72C1F21002964212DC122E56D8DFE894
:100B300006F0350B4D495555555555555555555597
:100B400055555545510000BFD1F80C9046E000BF07
:100B50004FF6FF72C1F2210296420FDC0022C1F271
:100B6000110296421AD00022C1F21202964215D00A
:100B70000022C1F22102964210D02FE00022C1F2E1
:100B8000220296420AD00022C1F23102964205D0DA
:100B90000022C1F23202964220D100BF8A684AB1D7
:100BA000012A14BFC0F814B0C0F810B04FF0080903
:100BB00014E000BF4FF0040910E000BFCA6802F162
:100BC00004090BE04FF0000908E000BFCA6802F119
:100BD000080903E0CA6802F10C0900BF0246264674
:100BE000B8F5807F24BF0432203E17680F25B5403A
:100BF00027EA050509FA06F635431560CA79D206D3
:100C00007FF57EAF41F21803C4F202031A68AEF515
:100C10007E7642F001021A601A6802F00102019227
:100C2000019A2AF0030256F802B040F60002C4F21C
:100C30000102904208D040F60042C4F20102904204
:100C40007FF41EAF012723E7002721E702B0BDE8AC
:100C5000F08F00008068084018BF01207047000036
:100C6000002A08BF090401617047000040F2E40057
:100C7000C2F200000068704740F2040040F2E40154
:100C8000C2F20000C2F2000100780A681044086055
:100C90007047000080B542F20000C4F20200016813
:100CA00041F010010160032000F08CF8002000F0FA
:100CB00005F800F027F8002080BD000070B540F274
:100CC0000406C2F2000640F20C013278C2F20001C2
:100CD0004FF47A730968B3FBF2F20446B1FBF2F108
:100CE000084600F085FB0F2C4FF0010508D838B9F5
:100CF0004FF0FF3021460022002500F037F87460E5
:100D0000284670BD82B041F21800C4F202000168AA
:100D1000022241F001010160016801F0010101912D
:100D20000199416841F080514160406800F0805075
:100D3000009000980420C4F20100016862F31A6177
:100D4000016002B070470000002848BF704700F003
:100D50001F01012202FA01F11C2202EAD0004EF228
:100D60000012CEF2000281507047000010B54EF61E
:100D70000C5CCEF2000CDCF80030C3F3022E8EF0D7
:100D80000704042C28BF0424BEF103034FF0FF3EE8
:100D90000EFA04F438BF0023A14399400EFA03F37E
:100DA0009A43114300F00F0200F160430901043A35
:100DB00003F564436244002848BF02F10C03197034
:100DC00010BD00004EF60C51CEF200010A684FF63D
:100DD000FF031A4060F30A2242F0806040F0FD7089
:100DE00008607047002804BF012070472DE9F043D8
:100DF00081B042F20008C4F202080446D8F80000AC
:100E00000D4600F0070081420CD9D8F8000020F010
:100E100007002843C8F80000D8F8000000F00700D9
:100E2000A8426CD1206841F204098107C4F202098A
:100E300017D5410705D5D9F8001041F4E061C9F88C
:100E40000010010705D5D9F8001041F46051C9F828
:100E50000010D9F80010A26821F0F0011143C9F880
:100E60000010C00742D1D8F8000000F0070085420A
:100E70000CD2D8F8000020F007002843C8F8000082
:100E8000D8F8000000F00700A84238D120684107D8
:100E900007D5D9F80010E26821F4E0611143C9F8E0
:100EA0000010000708D5D9F80000216920F460502F
:100EB00040EAC100C9F80000D9F8002002F00C0097
:100EC000082841F20020C0F27A004DD142F6AA3340
:100ED000C2F38341C0F60003595CD20338D440F614
:100EE0000010C0F23D0048433EE000BF606859F882
:100EF000041C022808D0012826D1890306D4012029
:100F000001B0BDE8F08300BF8901F8D5D9F8001021
:100F100021F003010843C9F80000FFF7A7FE0646C9
:100F200041F28837D9F80000616800F00C00B0EB9E
:100F3000810F98D0FFF79AFE801BB842F2D90320A8
:100F400001B0BDE8F08300BF8907D8D5DEE700BF58
:100F5000D9F8002042F69033C2F34042C0F60003B5
:100F60009A5C4843B0FBF2F0D9F8001042F6923296
:100F7000C1F30311C0F60002515C40F20C0220FAEA
:100F800001F140F20800C2F200000068C2F2000263
:100F90001160FFF793FE002001B0BDE8F083000070
:100FA00040F20C0041F20401C2F20000C4F202015E
:100FB0000068096842F6A232C1F30221C0F60002BD
:100FC000515CC8407047000040F20C0041F204013F
:100FD000C2F20000C4F202010068096842F6A232BF
:100FE000C1F3C221C0F60002515CC8407047000046
:100FF000002804BF012070472DE9F04182B004466B
:10100000007841F20006C007C4F202060CD07068F6
:1010100000F00C00042840F081803068800303D584
:101020006068002800F04681207880071BD5706832
:1010300010F00C0F09D0706800F00C00082840F088
:1010400087807068C00300F183803068800703D513
:101050002069012840F02E813068616920F0F80095
:1010600040EAC10030602078000713D420784007A0
:101070002CD4E569002D00F01881706800F00C0098
:10108000082840F0A780012D40F00481012002B023
:10109000BDE8F081A069002800F084800020C4F23F
:1010A00042200121C0F88014FFF7E0FD054600BF93
:1010B000706A800700F1B280FFF7D8FD401B02285C
:1010C000F6D9032002B0BDE8F08100BFF0695FEA05
:1010D000C00808D4F06940F08050F061F06900F079
:1010E00080500090009847F20007C4F2000738686B
:1010F000C00549D4386840F480703860FFF7B6FD09
:10110000054600BF3868C0053ED4FFF7AFFD401B61
:101110006428F7D9032002B0BDE8F081706800F0C0
:101120000C00082803D17068C0033FF576AF6168F2
:101130003068002900F00C81B1F5A02F00F000818B
:10114000B1F5803F40F01A8140F480301CE100BFCF
:101150002069002840F20000C4F2422000F088809C
:1011600001210160FFF782FD054600BF306880075E
:101170003FF572AFFFF77AFD401B0228F6D9032036
:1011800002B0BDE8F08100BFE168306A002900F0DC
:101190009D80052900F09280012940F0AF8040F049
:1011A0000100B1E00020C4F242200021C0F8801408
:1011B000FFF75CFD054600BF706A80077FF556AFFC
:1011C000FFF754FD401B0228F6D9032002B0BDE80A
:1011D000F08100BF0027C4F2422700203866FFF7E5
:1011E00045FD022D05460DD13068800140F1DE80BD
:1011F000FFF73CFD401B02284FF00300F4D902B07A
:10120000BDE8F081306880014FD5FFF72FFD401B0E
:1012100002284FF00300F5D9F1E700BF40F20C00BF
:10122000C2F20000006844F6D351C1F26201A0FB93
:101230000101480A019000BF00BF0198411E00282B
:1012400001913FF413AF00BF0198411E00280191A6
:101250003FF40CAF00BF0198411E002801913FF4FC
:1012600005AF00BF0198411E00280191E4D1FDE6C1
:1012700000210160FFF7FAFC054600BF30688007D7
:101280007FF5F1AEFFF7F2FC401B02284FF00300A0
:10129000F4D9B4E77068216A00F480328A4209D137
:1012A000616A00F47010884204D1002002B0BDE8E9
:1012B000F08100BF012002B0BDE8F08140F00400E1
:1012C0003062306A40F001001EE000BF20F00100F3
:1012D0003062306A20F004003062FFF7C7FC054638
:1012E00041F28837306A800720D5FFF7BFFC401BEA
:1012F000B8424FF00300F5D981E700BF20F00100AC
:101300003062306A20F004003062FFF7AFFC05461F
:1013100041F28837306A800708D4FFF7A7FC401BEA
:10132000B842F7D9032002B0BDE8F081B8F1000F50
:101330003FF59FAEF06920F08050F06199E600BF64
:1013400040F480203060306840F480301CE000BF02
:1013500020F480303060306820F480203060FFF767
:1013600085FC0546306880037FF55EAEFFF77EFCA6
:10137000401B64284FF00300F4D940E720F480308C
:101380003060306820F480203060FFF76FFC054645
:10139000306880033FF548AEFFF768FC401B6428C7
:1013A000F6D9032002B0BDE8F08100BF206AB0F595
:1013B000803F05D17168A26821F40031114371604A
:1013C0007168626A21F4741111430843706001204E
:1013D0003866FFF74BFC0446306880013FF565AF87
:1013E000FFF744FC001B02284FF00300F4D906E786
:1013F000411E0020B0EB116F1CBF012070474EF260
:101400001002CEF2000251604EF62351CEF20001DE
:10141000F0230B70072190601160704790F83C201A
:10142000012A4FF0020236D010B580F83D20026844
:10143000D2F804E0D2F808C00C682EF07003234301
:1014400040F2FF74C4F20004A24253600ADCB2F11D
:10145000804F13D040F20043C4F200039A420DD0F3
:1014600011E000BF42F60043C4F201039A4205D0E6
:1014700040F60003C4F200039A4204D149682CF0FC
:101480008003194391600121002280F83D1080F80B
:101490003C20BDE81040104670470000002804BF03
:1014A0000120704710B590F83D1031B9002180F847
:1014B0003C10044600F068F82046022180F83D10F8
:1014C000016840F2FF740B68C4F2000442F6004C5D
:1014D000A142C4F2010C15DCB1F1804F1AD040F2E8
:1014E0000042C4F20002914214D0A14218DCB1F1D2
:1014F000804F1DD040F20042C4F20002914217D04A
:101500001AE000BF614505D040F60002C4F20002B7
:101510009142EAD1826823F070031343A142E6DDD1
:10152000614505D040F60002C4F20002914203D1A9
:10153000026923F440731343846923F08002D0F8D6
:1015400004E0C368224361450A60CB62C1F828E029
:1015500002D14269CCF8302001224A6180F846204D
:1015600080F83E2080F83F2080F8402080F841201D
:1015700080F8422080F8432080F8442080F84520FD
:1015800080F83D20002010BD006842F60041C4F202
:101590000101884218BF704781B041F21800C4F2BF
:1015A0000200016841F400610160006800F400601D
:1015B0000090009801B0704790F83D1001291CBFC1
:1015C00001207047022180F83D10006840F2FF7151
:1015D000C4F20001884209DCB0F1804F12D040F221
:1015E0000041C4F2000188420CD012E042F60041F2
:1015F000C4F20101884205D040F60001C4F20001A6
:10160000884206D1816801F00701062904BF002045
:101610007047016841F0010101600020704700003F
:101620000146006841F21113026A1A4204D00122F5
:10163000002081F83D207047026A40F244431A427C
:10164000F5D1026822F0010202600122002081F837
:101650003D20704790F83C20012A4FF0020248D00C
:1016600080B580F83D20D0F800C04FF67772DCF8E6
:10167000083023EA0202CCF808200B683F2B1DDD5E
:101680005F2B39DD602B5BD0B3F5005F00F09880F5
:10169000702B26D1D1E901E3C968DCF8082043EAC0
:1016A0000E0322F47F4243EA01211143CCF80810D3
:1016B000DCF8081041F0770111E000BF1F2B03DCBC
:1016C00033B1102B04D00CE0202B01D0302B08D1EB
:1016D000DCF8081021F07001194341F00701CCF843
:1016E00008100121002280F83D1080F83C20BDE860
:1016F00080401046704700BF402B41D0502BF0D1A6
:10170000D1F804E0C968DCF82030DCF8202022F0B1
:101710000102CCF82020DCF8182022F0F00242EA86
:10172000011123F00A0242EA0E02CCF81810CCF89C
:101730002020DCF8081041F0570121F02001CEE70D
:10174000D1F804E0C968DCF8203023F01003CCF8AD
:101750002030DCF81830DCF8202023F4704322F02D
:10176000A00243EA013142EA0E12CCF81810CCF87C
:101770002020DCF8081041F0670121F01001AEE7ED
:10178000D1F804E0C968DCF82030DCF8202022F031
:101790000102CCF82020DCF8182022F0F00242EA06
:1017A000011123F00A0242EA0E02CCF81810CCF81C
:1017B0002020DCF8081041F0470121F030018EE7CD
:1017C000D1E901E3C968DCF8082043EA0E0322F4FA
:1017D0007F4243EA01211143CCF80810DCF80810DD
:1017E00041F480417BE70000704700007047000033
:1017F000B0B582B005682968EC686A6901F02F030A
:10180000202B04F0200305D123B102B0BDE8B04085
:1018100000F004BB5FEA017C1EBF02F0010E04F47D
:10182000907212EB0E0241D1026BCB0618D5012A41
:1018300016D114F0100213D00021019129680191F2
:101840006968019101996969490649D4818DC38DFF
:10185000C28D002A18BF994240F0DE8002B0B0BDB0
:101860000A062BD514F0800228D090F83D102129CB
:10187000F4D18168B1F5805F03D10169002900F0DE
:10188000E980016A4A1C026209786960C18C0139E9
:101890000A04C184E2D1E86820F08000E860E868CA
:1018A00040F04000E86002B0B0BD00BFCA0718BFFA
:1018B00014F4807244D14A0748D44EE04906CDD58D
:1018C00014F04001CAD0E96821F04001E96020210C
:1018D00080F83D1002B0BDE8B04000F089BA00BF0A
:1018E000816B0A68526894B2002CB7D0838D9C42F9
:1018F000B4D2C2858A69202A1AD0EA68044622F442
:101900008072EA606A6922F001026A616A6922F003
:1019100040026A61202280F83E2000220263EA68C9
:10192000084622F01002EA60FEF7FAFFA38D204677
:10193000C18D591A89B202B0BDE8B040FFF754BF5B
:10194000026C42F0010202644A0706D5BEF1000FA4
:1019500003D0026C42F0020202648A0706D5BEF18F
:10196000000F03D0026C42F004020264BCF1000FCD
:1019700006D55EEA030203D0026C42F0080202645C
:10198000026C002A3FF46AAF890605D523B10446EC
:1019900000F044FA256820466969026C01F04001B4
:1019A00002F0080289182FD0E96821F49071E960EB
:1019B000696921F001016961016B012903D1E968BD
:1019C00021F01001E960202180F83E100021016320
:1019D0006969490638D5696921F040016961816BFF
:1019E00091B341F61162C0F60002044608464A630C
:1019F000FEF7BAFF00283FF431AFA06B416B02B095
:101A0000BDE8B040084700BF0446FFF7EFFE0020E6
:101A1000206402B0B0BD00BFEA68C91A22F4907217
:101A2000EA606A6989B222F001026A61202280F8C4
:101A30003E2000220263EA6822F01002EA6002B04F
:101A4000BDE8B040FFF7D0BE02B0BDE8B040FFF740
:101A5000CDBE00BF016A31F8022B6FF35F226A60CE
:101A6000016213E7002804BF0120704710B5044647
:101A700090F83D0028B9002084F83C00204600F092
:101A800061F8242084F83D002068D4E90212C3687C
:101A900023F40053C360036923F440531A430261E3
:101AA000D4E904231143C268194341F20C639A43F9
:101AB0001143C1604169A26921F44071114343F6A9
:101AC0000002C4F201029042416103D0FFF768FABC
:101AD00002E000BFFFF778FAD4E900231921484358
:101AE0009900B0FBF1F048F21F5CC5F2EB1CA0FBC3
:101AF0000C314FF69C734909C0F6FF7301FB0300DC
:101B0000322303EB0010A0FB0C03F02000EA53107B
:101B100000EB0110C3F343110844906010692021C9
:101B200020F490401061506920F02A005061D06884
:101B300040F40050D0600020206484F83D1084F808
:101B40003E1010BD70B586B040F60004C4F201042A
:101B5000006804F54051002688420596CDE90366E9
:101B6000029601D006B070BD41F21800C4F2020026
:101B7000016802AD41F480410160016801F48041D7
:101B800001910199016841F0040101600068294652
:101B900000F00400019001984FF4007002900220C0
:101BA0000390032005902046FEF74AFF4FF4806023
:101BB000CDE90206204629460496FEF741FF25207E
:101BC00002210022FFF7D2F82520FFF7BDF806B06A
:101BD00070BD0000034690F83E0020280AD100297D
:101BE0004FF0010018BF002A00D1704793F83C0065
:101BF000012801D102207047002018639962222138
:101C00009A85DA85186483F83E10196883F83C00D9
:101C1000CA6842F48072CA604A6942F001024A61AD
:101C2000CA6842F02002CA607047000010B540F256
:101C30004404C2F2000400682169884218BF10BD44
:101C400014F8020F00F014FB04F10E0021460122EB
:101C5000BDE81040FFF7BEBF2DE9F04381B0044658
:101C600090F83D0020280DD100294FF0010018BF49
:101C7000002A03D101B0BDE8F08300BF94F83C0016
:101C8000012803D1022001B0BDE8F083012084F8CF
:101C90003C000020206421201D460E4684F83D00B3
:101CA0001746FEF7E3FFA784E784A1688146B1F5F4
:101CB000805F03D12069002800F09680374600211C
:101CC000002084F83C00E28C2068002A40D06A1C86
:101CD00023D0002D5FD088460168090608D4FEF79E
:101CE000C5FFA0EB09012068A942F5D968E000BF53
:101CF00017B117F8011B04E038F8021B00276FF337
:101D00005F214160E18C0139E184E18C0029E3D15C
:101D10001EE000BF0268120609D40268120606D44B
:101D2000026812065CBF02685FEA0262F2D51FB168
:101D300017F8012B05E000BF31F8022B00276FF3E5
:101D40005F224260E28C013AE284E28C002AE4D114
:101D5000016849060FD49DB3691C2AD10168490660
:101D600009D4016849065CBF01685FEA416102D499
:101D700001684906F2D5202084F83D00002001B01A
:101D8000BDE8F08317F8012B4260E28C013AE2844F
:101D9000E28C002ADCD00268120611D5002FF1D1A6
:101DA00031F8022B00276FF35F22EDE70068400651
:101DB000E1D4FEF75BFFA0EB09012068A942F5D949
:101DC000C16821F4D071C160416921F00101416114
:101DD000202084F83D0084F83E00002084F83C0078
:101DE000032001B0BDE8F0830027314668E700001A
:101DF00070470000FEE70000FEE7000070470000AB
:101E00007047000070470000FEF736BF70470000C3
:101E1000406A0021C185C184FFF7E8BC90F83E10FC
:101E2000222918BF704783680246B3F5805F09D145
:101E300052F8281F52F8183C002B41D003685B6809
:101E40000AE000BF52F8281F13B90369002BF5D030
:101E500003685B6803F07F030B7011680131116048
:101E6000C18D01390A04C18500D070470168CA6874
:101E700022F02002CA60CA6822F48072CA604A69ED
:101E800022F001024A61202280F83E20026B012AE2
:101E900018BFFFF7CBBE00220263CB6823F010030C
:101EA000CB600B68DB0607D581B000920A68009210
:101EB00049680091009901B0818DFFF795BC00BF82
:101EC000026852686FF35F2221F8022B8162C7E734
:101ED00040F25400C2F20000FFF78ABCFEE70000A7
:101EE000B0B540F29805C2F2000504462846FFF757
:101EF00063FB286800214162416AA14208D2416A1D
:101F0000A14205D2416AA14202D2416AA142F3D361
:101F100040F29800C2F20000BDE8B040FFF780BB7D
:101F2000B0B519B345681EA128461446FEF701F95D
:101F3000F0B11CA12846FEF7FCF828B31BA12846E7
:101F4000FEF7F7F8002818BFB0BD204600F088F86B
:101F50000546204600F062F8024617A0294600F028
:101F600035F92DA0BDE8B04000F030B9B0BD00BFDC
:101F7000204600F053F8014621A000F027F926A0E2
:101F8000BDE8B04000F022B9204600F069F80146F3
:101F900014A000F01BF920A0BDE8B04000F016B975
:101FA00048756D0054656D700000000054656D70DB
:101FB0002648756D000000006E6869657420646FC6
:101FC00020766120646F20616D206869656E2074E1
:101FD0006169206C6120256420646F207661202572
:101FE000642525006E6869657420646F20686965E2
:101FF0006E20746169206C6120256420646F00008C
:10200000646F20616D206869656E20746169206C61
:1020100061202564252500000A00000010B5044653
:10202000FEF740FC2046FEF761FBE0712046FEF71C
:102030005DFB60722046FEF759FBA0712046FEF75B
:1020400055FB20722046FEF751FBA0724FF47A70C8
:10205000FEF7E2FC4FF47A70FEF7DEFCE07910BD8B
:1020600010B50446FEF71EFC2046FEF73FFBE0716C
:102070002046FEF73BFB60722046FEF737FBA0715F
:102080002046FEF733FB20722046FEF72FFBA0729E
:102090004FF47A70FEF7C0FCA07910BD90B0FEF747
:1020A000F9FD00240120CDE90B44CDE90944069057
:1020B0000A904FF4E0104FF4803102250F9006A8EB
:1020C000CDE90714CDE90D51FEF792FF0F20CDE9C0
:1020D00000054FF48060CDE90304684602210294B4
:1020E000FEF780FE41F21800C4F20200016840F6DB
:1020F000000841F020010160016840F2440701F04E
:102100002001069106990168C4F2010841F004011A
:1021100001600068C2F2000700F004000690069813
:1021200008F540503D4645F8100F4FF4E1300C21C2
:10213000C5E901042846C5E90344C5E90514EC6175
:10214000FFF790FC40F2980608F51050C2F2000626
:1021500047214FF6FF7286E8130030460994CDE917
:102160000744CDE90044C6E90324C6E90544FFF766
:1021700095F94FF48050069006A93046FFF76AFAA9
:1021800069463046FFF74AF9A5F10E0128460122BB
:10219000FFF720FD284600F013F8A5F10C0041469A
:1021A0000122FEF79FFA3C1D2046FFF759FF787089
:1021B0002046FFF733FF3870204600F027F8F3E79A
:1021C00040F2E001C2F200010860704783B0B0B590
:1021D0009BB084461FA802AC0EC01FAA20466146D1
:1021E000019200F055F840F2E000C2F200000568EC
:1021F0002046FDF797FF82B2284621466423FFF769
:102200002BFD1BB0BDE8B04003B070472DE9F04195
:1022100094B040F21006C2F200067178012922D172
:1022200042F6BA35C0F600058046B01C2946FDF7D7
:102230008FFF00216C4600BF4F1CC9B244F821003B
:1022400000202946FDF784FF00283946F4D1009884
:1022500006A1FDF76EFF20B9F9B268464246FFF7C6
:102260005FFE0020308014B0BDE8F0816765740027
:1022700040F210010A28C2F2000102BF012048709A
:1022800000200A788B189870501C08707047000066
:1022900037B514460846064B6A46214600F0DCF87E
:1022A00004466946002000F06EFC20463EBD00005A
:1022B000872B000802E008C8121F08C1002AFAD1C3
:1022C00070477047002001E001C1121F002AFBD1B6
:1022D000704700002DE9FF5F82B00021DDE9043086
:1022E000020DDDF840B0034318D044F61050A2F2BE
:1022F000FF3242431514119801281FD0A5EB0B00A3
:10230000401C5FEA000A4FF000064E4FDFF838919C
:10231000B046504615D5CAF1000413E011980124C7
:102320004AA3012801D16FEA0B010298119AC0E972
:102330000031C0E9024206B0BDE8F09FCBF10000D9
:10234000DFE704460021404A491842EB0450CDE93A
:10235000001012E0E00707D032463B4640464946AF
:10236000FEF706F88046894632463B461046194637
:10237000FDF7FEFF06460F466410002CEAD1DDE9AA
:102380000401DDE90023BAF1000F06DAFDF7F0FFE2
:1023900042464B46FDF7ECFF05E0FEF75BF8424690
:1023A0004B46FEF757F804460E460022284BFEF730
:1023B000D9F803D84FF0FF30014607E00022254B43
:1023C00020463146FDF72DFFFEF7B3F8102409E053
:1023D000002C0ADB0A220023FDF7F2FE039B3032B9
:1023E0001A55641E50EA0102F2D1641C039AC4F12A
:1023F00011031444119A012A03D0012208430DD17C
:102400000AE0084304D000204FF0110B119072E74E
:10241000A3EB0B056D1E0DE05B4504DD4FF00002E4
:1024200005F1010504E003DA4FF00002A5F1010512
:10243000002AECD002981199C0E90231C0E90045A8
:1024400079E70000000014400000F03F3000000079
:102450000000F0430000E03F2DE9FF4F95B09B46A0
:102460008946064600250FE2252877D10024274615
:10247000F84A0121059400E0044316F8013F203B8F
:1024800001FA03F01042F7D130782A2811D06FF00A
:102490002F033078A0F13002092A16D8059A44F0AB
:1024A000020402EB820203EB42021044761C059008
:1024B000EFE759F8042B0592002A03DA504244F45E
:1024C0000054059044F00204761C30782E2816D172
:1024D00016F8010F44F004042A280DD06FF02F02E3
:1024E0003078A0F13003092B09D807EB870302EB02
:1024F0004303C718761CF3E759F8047B761C307841
:102500006C280FD006DC4C2817D068280DD06A281C
:1025100014D104E0742810D07A280FD10DE044F4CF
:1025200000140AE044F4801401E044F4401472788A
:10253000824202D104F58014761C761C307866281D
:102540000BD013DC582877D009DC002875D045283B
:10255000F6D04628F4D047281AD19DE118E0632828
:1025600035D0642879D0652812D195E1702873D0D0
:1025700008DC6728F1D069286FD06E280DD06F284D
:1025800006D1B5E073282CD0752875D0782874D082
:102590005A46179990476D1C75E1C4F30250022802
:1025A00009D003280DD0D9F8001004280DD00D60F3
:1025B00009F1040967E1D9F80010EA17C1E90052EE
:1025C000F6E7D9F800100D80F2E70D70F0E719F882
:1025D000041B8DF8001000208DF80100EA46012050
:1025E00003E059F804AB4FF0FF3061074FF00001F2
:1025F00002D40DE008F101018846B9420FDA8045A6
:10260000F8DB1AF808100029F4D108E008F10101FC
:1026100088468142FADB1AF808100029F6D105989D
:102620005B46A0EB080721463846179A00F094FA5B
:10263000284400EB080507E04DE029E10DE01AF819
:10264000010B5A4617999047B8F10108F7D25B463B
:1026500021463846179A13E142E00A220092C4F359
:1026600002524FF0000A022A08D059F804CB032A7C
:102670004FEAEC710AD00DE029E02AE009F10701E8
:1026800021F00702F2E802C1914609E00FFA8CFC42
:102690004FEAEC71042A03D14FFA8CFC4FEAEC713B
:1026A000002907DA0A460021DCF1000C61EB020187
:1026B0002D2202E0220504D52B228DF804200122D0
:1026C00003E0E20701D02022F7E7904659E00A2113
:1026D00002E010220DE010214FF0000A00910BE003
:1026E00010224FF0000A44F004040827009203E08F
:1026F00008224FF0000A0092C4F30252022A05D0C9
:1027000059F804CB0021032A08D009E009F1070198
:1027100021F00702F2E802C1914605E01FFA8CFCA5
:10272000042A01D10CF0FF0C4FF00008220728D535
:10273000702806D0009B83F0100353EA0A0305D0EB
:102740000EE040228DF80420012208E05CEA01023C
:1027500006D030228DF804208DF805000222904624
:10276000009B83F0080353EA0A030AD15CEA0102E2
:1027700001D1620705D530228DF804204FF0010801
:102780007F1E582804D034A003900EA802900DE0BC
:1027900036A0F9E753466046009AFDF711FD8446DE
:1027A0000398825C0298401E029002705CEA01006D
:1027B000F0D1029806A9081A00F1200A600702D594
:1027C00024F4803400E00127574502DDA7EB0A001E
:1027D00000E0002000EB0A01009005984144401AF7
:1027E0000590E00306D45B462146179A059800F051
:1027F000B3F90544002706E001A85A46C05D1799C1
:1028000090476D1C7F1C4745F6DBE0030CD55B460B
:102810002146179A059800F09FF9054404E03020FE
:102820005A46179990476D1C0099481E0090002940
:10283000F5DC08E0029802995A460078491C02919A
:10284000179990476D1CBAF10001AAF1010AF1DC59
:1028500065E1000009280100303132333435363764
:1028600038396162636465660000000030313233DC
:10287000343536373839414243444546000000007C
:1028800000F058F90544761C307800287FF4ECAD50
:1028900019B02846BDE8F08F620700D4062709F179
:1028A000070222F0070CFCE80223E14603F000488F
:1028B0005FEA080C02D00FF2702C0DE05FEA045CB6
:1028C00002D50FF2682C07E05FEAC47C02D00FF259
:1028D000602C01E0AFF2700C4FF0FF3823F00043A2
:1028E000CDF850C065280CD006DC452809D0462814
:1028F0001DD047283DD13DE0662818D067287ED1FD
:1029000038E00021112F01DB112000E0781CCDE917
:10291000000106A90EA8FFF7DDFCDDE90F010E9A04
:1029200003910021009207F1010A04914DE04FF05C
:1029300000400097CDE9011006A90EA8FFF7CAFCD8
:10294000DDE90F0203920E9B11990022DDF80CA025
:102950000093049211B9791C00EB010AB7EB0A004D
:1029600004D4C0F1FF3007F1010A0490AAEB07007C
:10297000019044E0012F00DA01270021112F01DD31
:10298000112000E03846CDE9000106A90EA8FFF7A6
:10299000A1FCDDE90F010E9A039100210491009240
:1029A000BA4621070CD40399514500DA8A46BAF198
:1029B000010F05DD009AAAF10101515C302908D010
:1029C000B84202DA10F1040F06DA0121CDE9011054
:1029D00015E0AAF10101E9E7002805DC04990144AA
:1029E0000491AAEB000102E0411C514500DD8A463A
:1029F0000499401A401C01904FF0004002902007BB
:102A000004D40198504501DBCDF8048000208DF8F6
:102A10004F0002980DF14F07B0F1004F25D02B2049
:102A20000E9002984FF0020800280CDA4042029003
:102A30002D200E9007E00A210298FDF7ABFB303104
:102A4000029007F8011DB8F10001A8F10108F2DCBD
:102A500002980028EFD1791E0E980870307800F0A7
:102A6000200040F0450007F8020D12A8C01B00F13D
:102A700007081498007800B1012000EB0A010198C2
:102A800001EBE07105984144401A401E0590E003B7
:102A900006D45B462146179A059800F05DF8054478
:102AA0001498007818B15A46179990476D1CE003A6
:102AB00024D55B462146179A059800F04DF8054449
:102AC0001CE00498002807DBDDE90301884203DDF0
:102AD0000098405C179901E0179930205A469047BA
:102AE000049805F10105401C04900198401E0190D6
:102AF00004D12E205A46179990476D1CBAF1000157
:102B0000AAF1010ADDDC05E017F8010B5A46179916
:102B100090476D1CB8F10001A8F10108F4DC5B4698
:102B20002146179A0598ABE62D0000002B00000007
:102B3000200000002DE9F041044600251E461746FE
:102B4000880404D405E039462020B0476D1C641E7B
:102B5000F9D52846BDE8F0812DE9F041044600256D
:102B60001E469046C80301D5302700E02027880480
:102B700004D505E041463846B0476D1C641EF9D5C2
:102B80002846BDE8F0810A68531C0B60107070473E
:102B9000010200000000000000000102030406071B
:102BA00008090000000001020304020304050607EF
:102BB00008090A0B0C0D0E0F10102000E02B000866
:102BC0000000002010000000B4220008F02B0008D4
:102BD00010000020D8040000C422000800000000FB
:102BE0000000000001000000100000000024F400BC
:04000005080000ED02
:00000001FF
