:020000040800F2
:10000000A0040020010100080919000801190008D6
:10001000051900082D080008E91900080000000073
:10002000000000000000000000000000111900089E
:1000300031080008000000000D190008151900081B
:100040001B0100081B0100081B0100081B01000820
:100050001B0100081B0100081B0100081B01000810
:100060001B0100081B0100081B0100081B01000800
:100070001B0100081B0100081B0100081B010008F0
:100080001B0100081B0100081B0100081B010008E0
:100090001B0100081B0100081B0100081B010008D0
:1000A0001B0100081B0100081B0100081B010008C0
:1000B0001B0100081B0100081B0100081B010008B0
:1000C0001B0100081B0100081B0100081B010008A0
:1000D0001B010008DD1900081B0100081B010008B6
:1000E0001B0100081B0100081B010008DFF80CD0F1
:1000F00000F094FA00480047311A0008A0040020DC
:100100000648804706480047FEE7FEE7FEE7FEE7B1
:10011000FEE7FEE7FEE7FEE7FEE7FEE71919000847
:10012000ED000008421C10F8011B0029FBD1801AC9
:10013000704710B5002200E0521C835C8C5CA34227
:1001400001D1002BF8D1D8B2E1B2401A10BD0000A5
:1001500070B50F4D00B92868002412E00A4602E08D
:100160009E4203D0521C1378002BF9D1DAB22243FD
:1001700005D02BB124B1002100F8011B04E0044696
:10018000401C0678002EE9D12860204670BD000092
:100190000000002070B5064601F0DEFD046805464B
:1001A0000A220021304600F049F82C6070BD30B5BD
:1001B0000B46014600202022012409E021FA02F525
:1001C0009D4205D303FA02F5491B04FA02F52844BF
:1001D000151EA2F10102F1DC30BD2DE9F05F0546EC
:1001E000002092469B4688460646814640241BE0F6
:1001F000284641464746224600F037FA53465A46BB
:10020000C01A914110D311461846224600F01EFA3A
:100210002D1A67EB01084F4622460120002100F00D
:1002200015FA17EB00094E41201EA4F10104DFDC92
:10023000484631462A464346BDE8F09F2DE9F0473F
:1002400091460F4680460446002614F8015B2DB106
:1002500000F02EFA0068405DC007F6D12B2D02D0C9
:100260002D2D18D0641E4A463946204600F024FA47
:1002700027B13968A14201D1C7F8008071054FF05C
:1002800002040BD54042002803DD01F065FD046047
:10029000A007BDE8F08746F48066E4E70028F8DAB6
:1002A00001F05AFD04606FF00040F2E72DE9FE4FC7
:1002B000804681EA0300C00F0C46009021F0004107
:1002C00023F00045B8EB0200A94105D24046214683
:1002D00090461C460B46024623F00040104347D090
:1002E000270DC7F30A00C3F30A510290401A019088
:1002F00040286BDAC3F3130040F4801B0098924649
:1003000020B10023D2EB030A63EB0B0B0198594693
:10031000C0F14002504600F099F906460D4650469D
:100320005946019A00F0B1F910EB08006141002430
:1003300087EA115284EAE7731A4340D0009A62B305
:10034000019A012A4FEA075215DC001B61EB0201FA
:100350004FF0004202EA0752CDE90042001C41F58D
:10036000801132462B4600F005FA03B0BDE8F08F4D
:1003700040462146F9E7001B61EB0201001C41F5F4
:10038000801300185B412018A2F5001747EB03010A
:1003900040EAD570B6196D4111E06D084FEA360696
:1003A00045EAC0754FEA0752001B61EB0201001CD1
:1003B00041F5801149084FEA300000195141324699
:1003C0002B4603B0BDE8F04F00F0C5B900980122FC
:1003D00040000023D0EB020263EBE073009821465B
:1003E0004FEAE074B8EB000061EB0401E9E783F049
:1003F00000435BE781F0004158E72DE9FE4F81EAB9
:10040000030404F0004421F0004100944FF0000B7D
:1004100023F0004350EA01045ED052EA03045BD0AB
:10042000C3F30A54C1F30A552C44A4F2F3340194E3
:10043000A0FB0254C1F3130141F48011C3F3130371
:1004400043F4801301FB024400FB034E840A970A25
:1004500044EA815447EA8357A4FB076802958D0A52
:1004600005FB07854FEA932C04FB0C542705029DDE
:100470004FEA065847EA1637B5EB08056EEB070C4E
:10048000870E920E47EA811742EA8312A7FB020108
:10049000B6EB0B0164EB00042B0D43EA0C335E1842
:1004A00044EB1C50DA465146E7FB0201C5F3130446
:1004B0004FEA0B3343EA14534FEA0432019C43EAF8
:1004C0000603A4F10C040294009CCDE900B400F0F2
:1004D00051F903B0BDE8F08F00200146F9E72DE99E
:1004E000F04D81EA030404F0004B21F0004514466E
:1004F0004FF0000A23F0004150EA050220D054EAF0
:1005000001021DD0C5F30A570246C5F31303C1F318
:100510001300C1F30A5640F4801543F48013A7EB8F
:100520000608101BD64608F2FD3873EB050002D30F
:1005300008F1010801E092185B41B8F1000F03DAFD
:1005400000200146BDE8F08D00204FF480110646E2
:1005500084460EE0171B73EB050705D3121B63EBF4
:10056000050306434CEA010C49084FEA3000921893
:100570005B4150EA0107EDD152EA030012D082EA52
:10058000040083EA0501084305D0101BAB4106D2E5
:100590000122002306E000224FF0004302E06FF04A
:1005A000010253101AEB06004CEB085110EB0A0045
:1005B00041EB0B01BDE8F04D00F0CDB8C1F30A529C
:1005C000C1F3130140F2FF3341F480119A4202DA81
:1005D00000200146704740F233439A42A2F2334270
:1005E00002DC524200F041B800F030B830B5041ED1
:1005F00071F1000404DB4FF00044404264EB010160
:10060000141E73F1000405DB1C464FF000435242F8
:1006100063EB0403994208BF904230BD1CB5094802
:100620000090094801900546009C06E0E06840F013
:10063000010394E8070098471034AC42F6D3FFF763
:1006400059FD0000F426000814270008202A04DBC6
:10065000203A00FA02F1002070479140C2F12003D5
:1006600020FA03F3194390407047202A04DB203A14
:1006700021FA02F00021704721FA02F3D040C2F1C2
:1006800020029140084319467047202A06DBCB1709
:10069000203A41FA02F043EAE07306E041FA02F33D
:1006A000D040C2F120029140084319467047000033
:1006B00000487047C02600082DE9F05F82460078A8
:1006C000002715468B460AF10104B946302801D0AF
:1006D0009DB113E014F8010B0127782803D05828A6
:1006E00001D045B10AE00DB1102D07D1002710252A
:1006F00014F8010B02E0082500E00A250026B046A8
:100700000EE005FB080005FB06F1012701EB104692
:100710001FFA80F8B6F5803F00D3B94614F8010BF4
:10072000294600F075F80028EBDABBF1000F05D080
:100730000FB1641E00E05446CBF80040B9F1000F41
:1007400006D001F009FB02210160C81EBDE8F09F40
:1007500048EA0640FAE710B5141E73F1000408DAFF
:10076000401C41F1000192185B411A4301D120F075
:10077000010010BD2DE9F04D92469B4611B1B1FA32
:1007800081F202E0B0FA80F220329046FFF75EFF7D
:1007900004460F4640EA0A0041EA0B0153465A4616
:1007A000084313D0114653EA010019D0C8F14002A2
:1007B0005046FFF75AFF05460E46504659464246F8
:1007C000FFF744FF084305D0012004E020463946E6
:1007D000BDE8F08D0020054346EAE0762C43374320
:1007E0000A986305E40AA0EB08000022FD0A44EA27
:1007F00047540A3002D500200146E9E701051019E7
:100800006941DDE9084500196941BDE8F04DA2E7FD
:100810003A2800D2303820F02002412A01D3A2F138
:100820003700884201D34FF0FF307047FEE70000E9
:1008300070470000014690F82100022816D1086890
:10084000D1E90FC3026822F00E020260026822F0B2
:1008500001020260012000FA03F2CCF8042081F8C2
:1008600021000020002281F82020704704208863A6
:100870000120002281F820207047000090F821100C
:10088000022923D1026840F2040C1168C4F2020C60
:1008900021F00E01116013682F21C4F202018A4277
:1008A00023F00103136015DD3023C4F202039A42E2
:1008B0001CD04423C4F202039A421BD05823C4F232
:1008C00002039A421CD14FF4803321E0042181635A
:1008D000012070470823C4F202039A420ED01C2361
:1008E000C4F202039A420BD1102311E04FF480733B
:1008F0000EE000BF4FF480530AE000BF012307E081
:100900000CF168014FF080738A4208BF4FF48013E6
:10091000CCF80030416B4FF480720029028404BF90
:100920000020704780B58847002080BD2DE9F04F3A
:1009300082B00E68002E00F0FF8040F20C4C40F2B6
:10094000004E41F20042C4F2010CC4F2010EC4F2A6
:1009500001020427002401234FF0000A4FF0000990
:10096000904208BF0327009749E000BF41F2000210
:10097000C4F20102009F904208BF022704F00C035A
:100980000F229A402BEA020207FA03F34FEA9A0574
:100990001A4346F825204E68F203DEF8002054BFC3
:1009A00022EA080242EA0802CEF80020DEF804201B
:1009B000B30354BF22EA080242EA0802CEF8042038
:1009C000F302DEF8082054BF22EA080242EA0802D5
:1009D000B302CEF80820DCF800204FF0010354BF2A
:1009E00022EA080242EA0802CCF800200E680AF166
:1009F000010A36FA0AF204F1040400F09D8003FAB9
:100A00000AFB16EA0B08F1D04E684FF6FF72C1F2EE
:100A10001002964212DC122E56D8DFE806F0350B93
:100A20004D4955555555555555555555555555459A
:100A3000510000BFD1F80C9046E000BF4FF6FF72A6
:100A4000C1F2210296420FDC0022C1F2110296424D
:100A50001AD00022C1F21202964215D00022C1F231
:100A60002102964210D02FE00022C1F222029642CB
:100A70000AD00022C1F23102964205D00022C1F212
:100A80003202964220D100BF8A684AB1012A14BFBF
:100A9000C0F814B0C0F810B04FF0080914E000BF5F
:100AA0004FF0040910E000BFCA6802F104090BE02E
:100AB0004FF0000908E000BFCA6802F1080903E02E
:100AC000CA6802F10C0900BF02462646B8F5807FCD
:100AD00024BF0432203E17680F25B54027EA0505DC
:100AE00009FA06F635431560CA79D2067FF57EAF5E
:100AF00041F21803C4F202031A68AEF57E7642F0A2
:100B000001021A601A6802F001020192019A2AF0A9
:100B1000030256F802B040F60002C4F2010290420D
:100B200008D040F60042C4F2010290427FF41EAFAA
:100B3000012723E7002721E702B0BDE8F08F00007E
:100B4000002A08BF090401617047000040F29C00C0
:100B5000C2F200000068704740F2080040F29C01B9
:100B6000C2F20000C2F2000100780A681044086076
:100B70007047000080B542F20000C4F20200016834
:100B800041F010010160032000F08CF8002000F01B
:100B900005F800F027F8002080BD000070B540F295
:100BA0000806C2F2000640F210013278C2F20001DB
:100BB0004FF47A730968B3FBF2F20446B1FBF2F129
:100BC000084600F085FB0F2C4FF0010508D838B916
:100BD0004FF0FF3021460022002500F037F8746006
:100BE000284670BD82B041F21800C4F202000168CC
:100BF000022241F001010160016801F0010101914F
:100C00000199416841F080514160406800F0805096
:100C1000009000980420C4F20100016862F31A6198
:100C2000016002B070470000002848BF704700F024
:100C30001F01012202FA01F11C2202EAD0004EF249
:100C40000012CEF2000281507047000010B54EF63F
:100C50000C5CCEF2000CDCF80030C3F3022E8EF0F8
:100C60000704042C28BF0424BEF103034FF0FF3E09
:100C70000EFA04F438BF0023A14399400EFA03F39F
:100C80009A43114300F00F0200F160430901043A56
:100C900003F564436244002848BF02F10C03197055
:100CA00010BD00004EF60C51CEF200010A684FF65E
:100CB000FF031A4060F30A2242F0806040F0FD70AA
:100CC00008607047002804BF012070472DE9F043F9
:100CD00081B042F20008C4F202080446D8F80000CD
:100CE0000D4600F0070081420CD9D8F8000020F032
:100CF00007002843C8F80000D8F8000000F00700FB
:100D0000A8426CD1206841F204098107C4F20209AB
:100D100017D5410705D5D9F8001041F4E061C9F8AD
:100D20000010010705D5D9F8001041F46051C9F849
:100D30000010D9F80010A26821F0F0011143C9F8A1
:100D40000010C00742D1D8F8000000F0070085422B
:100D50000CD2D8F8000020F007002843C8F80000A3
:100D6000D8F8000000F00700A84238D120684107F9
:100D700007D5D9F80010E26821F4E0611143C9F801
:100D80000010000708D5D9F80000216920F4605050
:100D900040EAC100C9F80000D9F8002002F00C00B8
:100DA000082841F20020C0F27A004DD142F2DE6301
:100DB000C2F38341C0F60003595CD20338D440F635
:100DC0000010C0F23D0048433EE000BF606859F8A3
:100DD000041C022808D0012826D1890306D401204A
:100DE00001B0BDE8F08300BF8901F8D5D9F8001043
:100DF00021F003010843C9F80000FFF7A7FE0646EB
:100E000041F28837D9F80000616800F00C00B0EBBF
:100E1000810F98D0FFF79AFE801BB842F2D90320C9
:100E200001B0BDE8F08300BF8907D8D5DEE700BF79
:100E3000D9F8002042F2C463C2F34042C0F6000376
:100E40009A5C4843B0FBF2F0D9F8001042F2C66257
:100E5000C1F30311C0F60002515C40F2100220FA07
:100E600001F140F20C00C2F200000068C2F2000280
:100E70001160FFF793FE002001B0BDE8F083000091
:100E800040F2100041F20401C2F20000C4F202017B
:100E90000068096842F2D662C1F30221C0F600027E
:100EA000515CC8407047000040F2100041F204015C
:100EB000C2F20000C4F202010068096842F2D66280
:100EC000C1F3C221C0F60002515CC8407047000067
:100ED000002804BF012070472DE9F04182B004468C
:100EE000007841F20006C007C4F202060CD0706818
:100EF00000F00C00042840F081803068800303D5A6
:100F00006068002800F04681207880071BD5706853
:100F100010F00C0F09D0706800F00C00082840F0A9
:100F200087807068C00300F183803068800703D534
:100F30002069012840F02E813068616920F0F800B6
:100F400040EAC10030602078000713D420784007C1
:100F50002CD4E569002D00F01881706800F00C00B9
:100F6000082840F0A780012D40F00481012002B044
:100F7000BDE8F081A069002800F084800020C4F260
:100F800042200121C0F88014FFF7E0FD054600BFB4
:100F9000706A800700F1B280FFF7D8FD401B02287D
:100FA000F6D9032002B0BDE8F08100BFF0695FEA26
:100FB000C00808D4F06940F08050F061F06900F09A
:100FC00080500090009847F20007C4F2000738688C
:100FD000C00549D4386840F480703860FFF7B6FD2A
:100FE000054600BF3868C0053ED4FFF7AFFD401B83
:100FF0006428F7D9032002B0BDE8F081706800F0E2
:101000000C00082803D17068C0033FF576AF616813
:101010003068002900F00C81B1F5A02F00F00081AC
:10102000B1F5803F40F01A8140F480301CE100BFF0
:101030002069002840F20000C4F2422000F08880BD
:1010400001210160FFF782FD054600BF306880077F
:101050003FF572AFFFF77AFD401B0228F6D9032057
:1010600002B0BDE8F08100BFE168306A002900F0FD
:101070009D80052900F09280012940F0AF8040F06A
:101080000100B1E00020C4F242200021C0F8801429
:10109000FFF75CFD054600BF706A80077FF556AF1D
:1010A000FFF754FD401B0228F6D9032002B0BDE82B
:1010B000F08100BF0027C4F2422700203866FFF706
:1010C00045FD022D05460DD13068800140F1DE80DE
:1010D000FFF73CFD401B02284FF00300F4D902B09B
:1010E000BDE8F081306880014FD5FFF72FFD401B30
:1010F00002284FF00300F5D9F1E700BF40F21000DD
:10110000C2F20000006844F6D351C1F26201A0FBB4
:101110000101480A019000BF00BF0198411E00284C
:1011200001913FF413AF00BF0198411E00280191C7
:101130003FF40CAF00BF0198411E002801913FF41D
:1011400005AF00BF0198411E00280191E4D1FDE6E2
:1011500000210160FFF7FAFC054600BF30688007F8
:101160007FF5F1AEFFF7F2FC401B02284FF00300C1
:10117000F4D9B4E77068216A00F480328A4209D158
:10118000616A00F47010884204D1002002B0BDE80A
:10119000F08100BF012002B0BDE8F08140F0040002
:1011A0003062306A40F001001EE000BF20F0010014
:1011B0003062306A20F004003062FFF7C7FC054659
:1011C00041F28837306A800720D5FFF7BFFC401B0B
:1011D000B8424FF00300F5D981E700BF20F00100CD
:1011E0003062306A20F004003062FFF7AFFC054641
:1011F00041F28837306A800708D4FFF7A7FC401B0C
:10120000B842F7D9032002B0BDE8F081B8F1000F71
:101210003FF59FAEF06920F08050F06199E600BF85
:1012200040F480203060306840F480301CE000BF23
:1012300020F480303060306820F480203060FFF788
:1012400085FC0546306880037FF55EAEFFF77EFCC7
:10125000401B64284FF00300F4D940E720F48030AD
:101260003060306820F480203060FFF76FFC054666
:10127000306880033FF548AEFFF768FC401B6428E8
:10128000F6D9032002B0BDE8F08100BF206AB0F5B6
:10129000803F05D17168A26821F40031114371606B
:1012A0007168626A21F4741111430843706001206F
:1012B0003866FFF74BFC0446306880013FF565AFA8
:1012C000FFF744FC001B02284FF00300F4D906E7A7
:1012D000411E0020B0EB116F1CBF012070474EF281
:1012E0001002CEF2000251604EF62351CEF2000100
:1012F000F0230B7007219060116070477047000069
:1013000070470000B0B582B005682968EC686A696A
:1013100001F02F03202B04F0200305D123B102B0EC
:10132000BDE8B04000F000BB5FEA017C1EBF02F0E8
:10133000010E04F4907212EB0E0241D1026BCB0647
:1013400018D5012A16D114F0100213D000210191F2
:10135000296801916968019101996969490649D42F
:10136000818DC38DC28D002A18BF994240F0DE8066
:1013700002B0B0BD0A062BD514F0800228D090F838
:101380003D102129F4D18168B1F5805F03D1016955
:10139000002900F0E980016A4A1C0262097869604C
:1013A000C18C01390A04C184E2D1E86820F08000D0
:1013B000E860E86840F04000E86002B0B0BD00BFFF
:1013C000CA0718BF14F4807244D14A0748D44EE0CB
:1013D0004906CDD514F04001CAD0E96821F040019A
:1013E000E960202180F83D1002B0BDE8B04000F077
:1013F00085BA00BF816B0A68526894B2002CB7D0DE
:10140000838D9C42B4D2C2858A69202A1AD0EA68A8
:10141000044622F48072EA606A6922F001026A617D
:101420006A6922F040026A61202280F83E20002290
:101430000263EA68084622F01002EA60FFF7FAF950
:10144000A38D2046C18D591A89B202B0BDE8B040C3
:10145000FFF754BF026C42F0010202644A0706D54E
:10146000BEF1000F03D0026C42F0020202648A0750
:1014700006D5BEF1000F03D0026C42F004020264F4
:10148000BCF1000F06D55EEA030203D0026C42F005
:1014900008020264026C002A3FF46AAF890605D58F
:1014A00023B1044600F040FA256820466969026CC1
:1014B00001F0400102F0080289182FD0E96821F4F8
:1014C0009071E960696921F001016961016B01298D
:1014D00003D1E96821F01001E960202180F83E1075
:1014E000002101636969490638D5696921F0400125
:1014F0006961816B91B341F61D12C0F6000204468A
:1015000008464A63FFF7BAF900283FF431AFA06BF1
:10151000416B02B0BDE8B040084700BF0446FFF78A
:10152000EFFE0020206402B0B0BD00BFEA68C91A17
:1015300022F49072EA606A6989B222F001026A615B
:10154000202280F83E2000220263EA6822F0100286
:10155000EA6002B0BDE8B040FFF7D0BE02B0BDE81F
:10156000B040FFF7CDBE00BF016A31F8022B6FF328
:101570005F226A60016213E7002804BF0120704700
:1015800010B5044690F83D0028B9002084F83C00CE
:10159000204600F061F8242084F83D002068D4E95A
:1015A0000212C36823F40053C360036923F4405359
:1015B0001A430261D4E904231143C268194341F27A
:1015C0000C639A431143C1604169A26921F44071DF
:1015D000114343F60002C4F201029042416103D07C
:1015E000FFF74EFC02E000BFFFF75EFCD4E90023EA
:1015F000192148439900B0FBF1F048F21F5CC5F295
:10160000EB1CA0FB0C314FF69C734909C0F6FF732D
:1016100001FB0300322303EB0010A0FB0C03F020BE
:1016200000EA531000EB0110C3F34311084490602B
:101630001069202120F490401061506920F02A00A8
:101640005061D06840F40050D0600020206484F8DD
:101650003D1084F83E1010BD70B586B040F6000411
:10166000C4F20104006804F5405100268842059642
:10167000CDE90366029601D006B070BD41F21800B4
:10168000C4F20200016802AD41F4804101600168CA
:1016900001F4804101910199016841F00401016068
:1016A0000068294600F00400019001984FF4007092
:1016B000029002200390032005902046FFF736F9A0
:1016C0004FF48060CDE90206204629460496FFF7D4
:1016D0002DF9252002210022FFF7B8FA2520FFF777
:1016E000A3FA06B070BD0000034690F83E00202823
:1016F0000AD100294FF0010018BF002A00D170471D
:1017000093F83C00012801D10220704700201863A3
:10171000996222219A85DA85186483F83E10196847
:1017200083F83C00CA6842F48072CA604A6942F099
:1017300001024A61CA6842F02002CA607047000094
:10174000B0B540F24C04C2F20004254615F8080B6F
:1017500000F0E0FA284621460122BDE8B040FFF73C
:10176000C3BF00002DE9F04381B0044690F83D006E
:1017700020280DD100294FF0010018BF002A03D105
:1017800001B0BDE8F08300BF94F83C00012803D10C
:10179000022001B0BDE8F083012084F83C00002065
:1017A000206421201D460E4684F83D001746FFF7B1
:1017B000CDF9A784E784A1688146B1F5805F03D1A4
:1017C0002069002800F0968037460021002084F828
:1017D0003C00E28C2068002A40D06A1C23D0002DF7
:1017E0005FD088460168090608D4FFF7AFF9A0EB7F
:1017F00009012068A942F5D968E000BF17B117F8C0
:10180000011B04E038F8021B00276FF35F214160E1
:10181000E18C0139E184E18C0029E3D11EE000BFB5
:101820000268120609D40268120606D4026812067B
:101830005CBF02685FEA0262F2D51FB117F8012BA4
:1018400005E000BF31F8022B00276FF35F224260F2
:10185000E28C013AE284E28C002AE4D10168490674
:101860000FD49DB3691C2AD10168490609D40168C7
:1018700049065CBF01685FEA416102D4016849061C
:10188000F2D5202084F83D00002001B0BDE8F083AF
:1018900017F8012B4260E28C013AE284E28C002AC4
:1018A000DCD00268120611D5002FF1D131F8022BDD
:1018B00000276FF35F22EDE700684006E1D4FFF7F1
:1018C00045F9A0EB09012068A942F5D9C16821F4C6
:1018D000D071C160416921F001014161202084F88B
:1018E0003D0084F83E00002084F83C00032001B055
:1018F000BDE8F0830027314668E70000704700002C
:10190000FEE70000FEE7000070470000704700009F
:1019100070470000FFF720B970470000406A0021BF
:10192000C185C184FFF7ECBC90F83E10222918BF96
:10193000704783680246B3F5805F09D152F8281FCB
:1019400052F8183C002B41D003685B680AE000BFE6
:1019500052F8281F13B90369002BF5D003685B68A0
:1019600003F07F030B70116801311160C18D0139E3
:101970000A04C18500D070470168CA6822F02002BD
:10198000CA60CA6822F48072CA604A6922F0010201
:101990004A61202280F83E20026B012A18BFFFF71F
:1019A000CFBE00220263CB6823F01003CB600B682C
:1019B000DB0607D581B000920A6800924968009161
:1019C000009901B0818DFFF799BC00BF0268526891
:1019D0006FF35F2221F8022B8162C7E740F25400C7
:1019E000C2F20000FFF78EBCFEE70000022903D31D
:1019F00009A000F029B900BF01A000F025B900BF7F
:101A00006368756120647520646F6920736F206E50
:101A100069206F6920000000647520256420646FD0
:101A20006920736F20726F6920636F74206F690083
:101A300090B0FFF79FF800270120CDE90B77CDE9A3
:101A4000097706900A904FF4E0104FF48031022499
:101A50000F9006A8CDE90717CDE90D41FFF738FA39
:101A60000F2001A991C14FF48060CDE9040701A8BE
:101A70000221FFF727F941F21800C4F202000168C1
:101A800040F6000441F020010160016840F24C057D
:101A900001F02001069106990168C4F2010441F0A9
:101AA000040101600068C2F2000500F00400069025
:101AB000069804F540502E4646F8080F4FF4E130E2
:101AC0000C21C5E903073046C5E90577C5E90717C5
:101AD0006F62FFF751FD304629460122FFF704FEF1
:101AE000304600F0ABF804352846214600F0A4F853
:101AF000284600F0C9F8FBE72DE9F04F85B0054610
:101B00004068924603780F466F2B05D141786E29C5
:101B100002D1817800293FD03CA1FEF70AFBC0BB6F
:101B2000032F36D32E1D42F2F065023F4FF001081D
:101B30000DF104090FF2D80BC0F6000556F8040F9A
:101B4000DAF80040FEF726FB08FA00F0CDE90108BC
:101B5000002003900220049020464946FEF7E6FE4E
:101B60003068FEF717FB08FA00F081B240F600007B
:101B7000C4F201000022FEF7E3FF3068FEF70AFB23
:101B80000146584600F060F8284600F05DF8013F35
:101B9000D4D105B0BDE8F08F032FFAD32C1D42F24B
:101BA000F065023F4FF001080DF104090FF2740BCC
:101BB000C0F6000554F8040FDAF80060FEF7EAFA00
:101BC00008FA00F0CDE901080020039002200490FB
:101BD00030464946FEF7AAFE2068FEF7DBFA08FA0F
:101BE00000F081B240F60000C4F201000122FEF7CD
:101BF000A7FF2068FEF7CEFA0146584600F024F809
:101C0000284600F021F8013FD4D1C2E76F66660094
:101C100020646120746174206C656420736F2025DA
:101C20006420000020646120626174206C6564207F
:101C3000736F2025640000000160704740F2980136
:101C4000C2F200010860704783B0B0B59BB0844613
:101C50001FA802AC0EC01FAA20466146019200F0E8
:101C600069F840F29800C2F2000005682046FEF7CD
:101C700059FA82B2284621466423FFF773FD1BB050
:101C8000BDE8B04003B070472DE9F04194B040F298
:101C90001806C2F20006717801292DD142F2EE65D4
:101CA000C0F600058046B01C2946FEF751FA002117
:101CB0006C4600BF4F1CC9B244F8210000202946E1
:101CC000FEF746FA00283946F4D1009D0CA12846BB
:101CD000FEF72FFA50B10CA12846FEF72AFA48B9B0
:101CE000F9B268464246FFF707FF03E0F9B26846DB
:101CF000FFF77CFE0020308014B0BDE8F08100BF0B
:101D000067657474656D70006E6861706E68617986
:101D10000000000040F218010A28C2F2000102BFD0
:101D20000120487000200A788B189870501C0870A9
:101D30007047000037B514460846064B6A462146F0
:101D400000F0E0F804466946002000F072FC2046EE
:101D50003EBD000033260008004870470400002004
:101D600002E008C8121F08C1002AFAD17047704764
:101D7000002001E001C1121F002AFBD170470000C2
:101D80002DE9FF5F82B00021DDE90430020DDDF8AE
:101D900040B0034318D044F61050A2F2FF32424341
:101DA0001514119801281FD0A5EB0B00401C5FEA09
:101DB000000A4FF000064E4FDFF83891B04650460B
:101DC00015D5CAF1000413E0119801244AA3012893
:101DD00001D16FEA0B010298119AC0E90031C0E904
:101DE000024206B0BDE8F09FCBF10000DFE70446F9
:101DF0000021404A491842EB0450CDE9001012E09E
:101E0000E00707D032463B4640464946FEF7F5FA22
:101E10008046894632463B4610461946FEF7EDFAA3
:101E200006460F466410002CEAD1DDE90401DDE925
:101E30000023BAF1000F06DAFEF7DFFA42464B46FE
:101E4000FEF7DBFA05E0FEF74AFB42464B46FEF79B
:101E500046FB04460E460022284BFEF7C7FB03D87C
:101E60004FF0FF30014607E00022254B2046314667
:101E7000FEF71CFAFEF7A2FB102409E0002C0ADB97
:101E80000A220023FEF7A9F9039B30321A55641E7B
:101E900050EA0102F2D1641C039AC4F11103144404
:101EA000119A012A03D0012208430DD10AE0084308
:101EB00004D000204FF0110B119072E7A3EB0B053B
:101EC0006D1E0DE05B4504DD4FF0000205F10105DC
:101ED00004E003DA4FF00002A5F10105002AECD07E
:101EE00002981199C0E90231C0E9004579E7000084
:101EF000000014400000F03F300000000000F043FC
:101F00000000E03F2DE9FF4F95B09B46894606460D
:101F100000250FE2252877D100242746F84A012121
:101F2000059400E0044316F8013F203B01FA03F05A
:101F30001042F7D130782A2811D06FF02F03307873
:101F4000A0F13002092A16D8059A44F0020402EBE7
:101F5000820203EB42021044761C0590EFE759F829
:101F6000042B0592002A03DA504244F400540590F1
:101F700044F00204761C30782E2816D116F8010F92
:101F800044F004042A280DD06FF02F023078A0F11D
:101F90003003092B09D807EB870302EB4303C7186B
:101FA000761CF3E759F8047B761C30786C280FD048
:101FB00006DC4C2817D068280DD06A2814D104E01C
:101FC000742810D07A280FD10DE044F400140AE0F0
:101FD00044F4801401E044F440147278824202D147
:101FE00004F58014761C761C307866280BD013DC40
:101FF000582877D009DC002875D04528F6D0462827
:10200000F4D047281AD19DE118E0632835D0642820
:1020100079D0652812D195E1702873D008DC672843
:10202000F1D069286FD06E280DD06F2806D1B5E0A9
:1020300073282CD0752875D0782874D05A461799F3
:1020400090476D1C75E1C4F30250022809D00328A3
:102050000DD0D9F8001004280DD00D6009F1040945
:1020600067E1D9F80010EA17C1E90052F6E7D9F89C
:1020700000100D80F2E70D70F0E719F8041B8DF8E1
:10208000001000208DF80100EA46012003E059F815
:1020900004AB4FF0FF3061074FF0000102D40DE0B8
:1020A00008F101018846B9420FDA8045F8DB1AF8D9
:1020B00008100029F4D108E008F1010188468142A6
:1020C000FADB1AF808100029F6D105985B46A0EB58
:1020D000080721463846179A00F094FA284400EB86
:1020E000080507E04DE029E10DE01AF8010B5A461A
:1020F00017999047B8F10108F7D25B462146384658
:10210000179A13E142E00A220092C4F302524FF000
:10211000000A022A08D059F804CB032A4FEAEC71CE
:102120000AD00DE029E02AE009F1070121F00702B9
:10213000F2E802C1914609E00FFA8CFC4FEAEC711B
:10214000042A03D14FFA8CFC4FEAEC71002907DA1C
:102150000A460021DCF1000C61EB02012D2202E0B5
:10216000220504D52B228DF80420012203E0E2078A
:1021700001D02022F7E7904659E00A2102E0102220
:102180000DE010214FF0000A00910BE010224FF0FB
:10219000000A44F004040827009203E008224FF0EC
:1021A000000A0092C4F30252022A05D059F804CB67
:1021B0000021032A08D009E009F1070121F00702F4
:1021C000F2E802C1914605E01FFA8CFC042A01D115
:1021D0000CF0FF0C4FF00008220728D5702806D01D
:1021E000009B83F0100353EA0A0305D00EE040225F
:1021F0008DF80420012208E05CEA010206D03022BA
:102200008DF804208DF8050002229046009B83F093
:10221000080353EA0A030AD15CEA010201D162070A
:1022200005D530228DF804204FF001087F1E582874
:1022300004D034A003900EA802900DE036A0F9E778
:1022400053466046009AFDF7C8FF84460398825CB7
:102250000298401E029002705CEA0100F0D10298E0
:1022600006A9081A00F1200A600702D524F4803478
:1022700000E00127574502DDA7EB0A0000E000203F
:1022800000EB0A01009005984144401A0590E003D4
:1022900006D45B462146179A059800F0B3F9054429
:1022A000002706E001A85A46C05D179990476D1CAB
:1022B0007F1C4745F6DBE0030CD55B462146179AA9
:1022C000059800F09FF9054404E030205A4617991C
:1022D00090476D1C0099481E00900029F5DC08E02D
:1022E000029802995A460078491C02911799904722
:1022F0006D1CBAF10001AAF1010AF1DC65E10000F0
:1023000009280100303132333435363738396162CB
:10231000636465660000000030313233343536378F
:1023200038394142434445460000000000F058F966
:102330000544761C307800287FF4ECAD19B02846AF
:10234000BDE8F08F620700D4062709F1070222F0EA
:10235000070CFCE80223E14603F000485FEA080CA2
:1023600002D00FF2702C0DE05FEA045C02D50FF290
:10237000682C07E05FEAC47C02D00FF2602C01E019
:10238000AFF2700C4FF0FF3823F00043CDF850C08F
:1023900065280CD006DC452809D046281DD04728E2
:1023A0003DD13DE0662818D067287ED138E0002175
:1023B000112F01DB112000E0781CCDE9000106A9F6
:1023C0000EA8FFF7DDFCDDE90F010E9A0391002155
:1023D000009207F1010A04914DE04FF00040009790
:1023E000CDE9011006A90EA8FFF7CAFCDDE90F022E
:1023F00003920E9B11990022DDF80CA00093049229
:1024000011B9791C00EB010AB7EB0A0004D4C0F142
:10241000FF3007F1010A0490AAEB0700019044E0A5
:10242000012F00DA01270021112F01DD112000E02A
:102430003846CDE9000106A90EA8FFF7A1FCDDE9A9
:102440000F010E9A0391002104910092BA462107D0
:102450000CD40399514500DA8A46BAF1010F05DD23
:10246000009AAAF10101515C302908D0B84202DA81
:1024700010F1040F06DA0121CDE9011015E0AAF1EF
:102480000101E9E7002805DC049901440491AAEB65
:10249000000102E0411C514500DD8A460499401AC2
:1024A000401C01904FF000400290200704D4019896
:1024B000504501DBCDF8048000208DF84F000298D4
:1024C0000DF14F07B0F1004F25D02B200E90029850
:1024D0004FF0020800280CDA404202902D200E90A6
:1024E00007E00A210298FDF762FE3031029007F8FA
:1024F000011DB8F10001A8F10108F2DC02980028E2
:10250000EFD1791E0E980870307800F0200040F06E
:10251000450007F8020D12A8C01B00F10708149827
:10252000007800B1012000EB0A01019801EBE07195
:1025300005984144401A401E0590E00306D45B46CE
:102540002146179A059800F05DF805441498007824
:1025500018B15A46179990476D1CE00324D55B4685
:102560002146179A059800F04DF805441CE00498A0
:10257000002807DBDDE90301884203DD0098405CA9
:10258000179901E0179930205A469047049805F1B1
:102590000105401C04900198401E019004D12E209A
:1025A0005A46179990476D1CBAF10001AAF1010A29
:1025B000DDDC05E017F8010B5A46179990476D1CB2
:1025C000B8F10001A8F10108F4DC5B462146179A36
:1025D0000598ABE62D0000002B0000002000000055
:1025E0002DE9F041044600251E461746880404D410
:1025F00005E039462020B0476D1C641EF9D52846F9
:10260000BDE8F0812DE9F041044600251E469046C4
:10261000C80301D5302700E02027880404D505E051
:1026200041463846B0476D1C641EF9D52846BDE8C2
:10263000F0810A68531C0B601070704700404040E6
:102640004040404040404141414141404040404085
:102650004040404040404040404040404005020231
:1026600002020202020202020202020202202020F0
:10267000202020202020200202020202020290904C
:10268000909090901010101010101010101010104A
:10269000101010101010101002020202020288889E
:1026A00088888888080808080808080808080808AA
:1026B0000808080808080808020202024000000092
:1026C0003D26000801020000000000000000010299
:1026D00003040607080900000000010203040203C6
:1026E0000405060708090A0B0C0D0E0F1010200038
:1026F0000A00000018270008000000201800000051
:10270000601D000830270008180000208804000021
:10271000701D000800000000000000000000000024
:1027200001000000100000000024F4000000000080
:04000005080000ED02
:00000001FF
